{
  "_format": "hh-sol-artifact-1",
  "contractName": "BasicDEX",
  "sourceName": "contracts/BasicDex.sol",
  "abi": [
    {
      "inputs": [
        {
          "internalType": "address",
          "name": "_token0",
          "type": "address"
        },
        {
          "internalType": "address",
          "name": "_token1",
          "type": "address"
        }
      ],
      "stateMutability": "nonpayable",
      "type": "constructor"
    },
    {
      "inputs": [],
      "name": "ReentrancyGuardReentrantCall",
      "type": "error"
    },
    {
      "inputs": [
        {
          "internalType": "uint256",
          "name": "amount0",
          "type": "uint256"
        },
        {
          "internalType": "uint256",
          "name": "amount1",
          "type": "uint256"
        }
      ],
      "name": "addLiquidity",
      "outputs": [
        {
          "internalType": "uint256",
          "name": "liquidityMinted",
          "type": "uint256"
        }
      ],
      "stateMutability": "nonpayable",
      "type": "function"
    },
    {
      "inputs": [],
      "name": "getReserves",
      "outputs": [
        {
          "internalType": "uint256",
          "name": "_reserve0",
          "type": "uint256"
        },
        {
          "internalType": "uint256",
          "name": "_reserve1",
          "type": "uint256"
        }
      ],
      "stateMutability": "view",
      "type": "function"
    },
    {
      "inputs": [
        {
          "internalType": "uint256",
          "name": "amountIn",
          "type": "uint256"
        },
        {
          "internalType": "bool",
          "name": "token0ToToken1",
          "type": "bool"
        }
      ],
      "name": "getSwapAmount",
      "outputs": [
        {
          "internalType": "uint256",
          "name": "amountOut",
          "type": "uint256"
        }
      ],
      "stateMutability": "view",
      "type": "function"
    },
    {
      "inputs": [
        {
          "internalType": "address",
          "name": "user",
          "type": "address"
        }
      ],
      "name": "getUserLiquidity",
      "outputs": [
        {
          "internalType": "uint256",
          "name": "",
          "type": "uint256"
        }
      ],
      "stateMutability": "view",
      "type": "function"
    },
    {
      "inputs": [
        {
          "internalType": "address",
          "name": "",
          "type": "address"
        }
      ],
      "name": "liquidity",
      "outputs": [
        {
          "internalType": "uint256",
          "name": "",
          "type": "uint256"
        }
      ],
      "stateMutability": "view",
      "type": "function"
    },
    {
      "inputs": [
        {
          "internalType": "uint256",
          "name": "liquidityAmount",
          "type": "uint256"
        }
      ],
      "name": "removeLiquidity",
      "outputs": [
        {
          "internalType": "uint256",
          "name": "amount0",
          "type": "uint256"
        },
        {
          "internalType": "uint256",
          "name": "amount1",
          "type": "uint256"
        }
      ],
      "stateMutability": "nonpayable",
      "type": "function"
    },
    {
      "inputs": [],
      "name": "reserve0",
      "outputs": [
        {
          "internalType": "uint256",
          "name": "",
          "type": "uint256"
        }
      ],
      "stateMutability": "view",
      "type": "function"
    },
    {
      "inputs": [],
      "name": "reserve1",
      "outputs": [
        {
          "internalType": "uint256",
          "name": "",
          "type": "uint256"
        }
      ],
      "stateMutability": "view",
      "type": "function"
    },
    {
      "inputs": [
        {
          "internalType": "uint256",
          "name": "amountIn",
          "type": "uint256"
        },
        {
          "internalType": "uint256",
          "name": "minAmountOut",
          "type": "uint256"
        },
        {
          "internalType": "bool",
          "name": "token0ToToken1",
          "type": "bool"
        }
      ],
      "name": "swap",
      "outputs": [
        {
          "internalType": "uint256",
          "name": "amountOut",
          "type": "uint256"
        }
      ],
      "stateMutability": "nonpayable",
      "type": "function"
    },
    {
      "inputs": [],
      "name": "token0",
      "outputs": [
        {
          "internalType": "contract IERC20",
          "name": "",
          "type": "address"
        }
      ],
      "stateMutability": "view",
      "type": "function"
    },
    {
      "inputs": [],
      "name": "token1",
      "outputs": [
        {
          "internalType": "contract IERC20",
          "name": "",
          "type": "address"
        }
      ],
      "stateMutability": "view",
      "type": "function"
    },
    {
      "inputs": [],
      "name": "totalLiquidity",
      "outputs": [
        {
          "internalType": "uint256",
          "name": "",
          "type": "uint256"
        }
      ],
      "stateMutability": "view",
      "type": "function"
    }
  ],
  "bytecode": "0x608060405234801561001057600080fd5b5060405161176a38038061176a83398181016040528101906100329190610126565b600160008190555081600160006101000a81548173ffffffffffffffffffffffffffffffffffffffff021916908373ffffffffffffffffffffffffffffffffffffffff16021790555080600260006101000a81548173ffffffffffffffffffffffffffffffffffffffff021916908373ffffffffffffffffffffffffffffffffffffffff1602179055505050610166565b600080fd5b600073ffffffffffffffffffffffffffffffffffffffff82169050919050565b60006100f3826100c8565b9050919050565b610103816100e8565b811461010e57600080fd5b50565b600081519050610120816100fa565b92915050565b6000806040838503121561013d5761013c6100c3565b5b600061014b85828601610111565b925050602061015c85828601610111565b9150509250929050565b6115f5806101756000396000f3fe608060405234801561001057600080fd5b50600436106100b45760003560e01c80635a76f25e116100715780635a76f25e146101925780639c8f9f23146101b05780639cd441da146101e1578063b8c876b114610211578063d21220a714610241578063dbbdd9351461025f576100b4565b80630902f1ac146100b95780630dfe1681146100d857806315770f92146100f657806328db42ad146101145780632bec60fe14610144578063443cb4bc14610174575b600080fd5b6100c161028f565b6040516100cf929190610ef6565b60405180910390f35b6100e06102a0565b6040516100ed9190610f9e565b60405180910390f35b6100fe6102c6565b60405161010b9190610fb9565b60405180910390f35b61012e6004803603810190610129919061103d565b6102cc565b60405161013b9190610fb9565b60405180910390f35b61015e6004803603810190610159919061107d565b6103d9565b60405161016b9190610fb9565b60405180910390f35b61017c61077c565b6040516101899190610fb9565b60405180910390f35b61019a610782565b6040516101a79190610fb9565b60405180910390f35b6101ca60048036038101906101c591906110d0565b610788565b6040516101d8929190610ef6565b60405180910390f35b6101fb60048036038101906101f691906110fd565b610a8e565b6040516102089190610fb9565b60405180910390f35b61022b6004803603810190610226919061117b565b610d8c565b6040516102389190610fb9565b60405180910390f35b610249610da4565b6040516102569190610f9e565b60405180910390f35b6102796004803603810190610274919061117b565b610dca565b6040516102869190610fb9565b60405180910390f35b600080600354600454915091509091565b600160009054906101000a900473ffffffffffffffffffffffffffffffffffffffff1681565b60055481565b6000808311610310576040517f08c379a000000000000000000000000000000000000000000000000000000000815260040161030790611205565b60405180910390fd5b600060035411801561032457506000600454115b610363576040517f08c379a000000000000000000000000000000000000000000000000000000000815260040161035a90611271565b60405180910390fd5b60008261037257600454610376565b6003545b90506000836103875760035461038b565b6004545b905060006103e58661039d91906112c0565b9050806103e8846103ae91906112c0565b6103b89190611302565b82826103c491906112c0565b6103ce9190611365565b935050505092915050565b60006103e3610e13565b60008411610426576040517f08c379a000000000000000000000000000000000000000000000000000000000815260040161041d90611205565b60405180910390fd5b61043084836102cc565b905082811015610475576040517f08c379a000000000000000000000000000000000000000000000000000000000815260040161046c906113e2565b60405180910390fd5b81156105f657600160009054906101000a900473ffffffffffffffffffffffffffffffffffffffff1673ffffffffffffffffffffffffffffffffffffffff166323b872dd3330876040518463ffffffff1660e01b81526004016104da93929190611411565b6020604051808303816000875af11580156104f9573d6000803e3d6000fd5b505050506040513d601f19601f8201168201806040525081019061051d919061145d565b50600260009054906101000a900473ffffffffffffffffffffffffffffffffffffffff1673ffffffffffffffffffffffffffffffffffffffff1663a9059cbb33836040518363ffffffff1660e01b815260040161057b92919061148a565b6020604051808303816000875af115801561059a573d6000803e3d6000fd5b505050506040513d601f19601f820116820180604052508101906105be919061145d565b5083600360008282546105d19190611302565b9250508190555080600460008282546105ea91906114b3565b9250508190555061076d565b600260009054906101000a900473ffffffffffffffffffffffffffffffffffffffff1673ffffffffffffffffffffffffffffffffffffffff166323b872dd3330876040518463ffffffff1660e01b815260040161065593929190611411565b6020604051808303816000875af1158015610674573d6000803e3d6000fd5b505050506040513d601f19601f82011682018060405250810190610698919061145d565b50600160009054906101000a900473ffffffffffffffffffffffffffffffffffffffff1673ffffffffffffffffffffffffffffffffffffffff1663a9059cbb33836040518363ffffffff1660e01b81526004016106f692919061148a565b6020604051808303816000875af1158015610715573d6000803e3d6000fd5b505050506040513d601f19601f82011682018060405250810190610739919061145d565b50836004600082825461074c9190611302565b92505081905550806003600082825461076591906114b3565b925050819055505b610775610e59565b9392505050565b60035481565b60045481565b600080610793610e13565b82600660003373ffffffffffffffffffffffffffffffffffffffff1673ffffffffffffffffffffffffffffffffffffffff168152602001908152602001600020541015610815576040517f08c379a000000000000000000000000000000000000000000000000000000000815260040161080c90611271565b60405180910390fd5b6005546003548461082691906112c0565b6108309190611365565b91506005546004548461084391906112c0565b61084d9190611365565b905060008211801561085f5750600081115b61089e576040517f08c379a000000000000000000000000000000000000000000000000000000000815260040161089590611533565b60405180910390fd5b82600660003373ffffffffffffffffffffffffffffffffffffffff1673ffffffffffffffffffffffffffffffffffffffff16815260200190815260200160002060008282546108ed91906114b3565b92505081905550826005600082825461090691906114b3565b92505081905550816003600082825461091f91906114b3565b92505081905550806004600082825461093891906114b3565b92505081905550600160009054906101000a900473ffffffffffffffffffffffffffffffffffffffff1673ffffffffffffffffffffffffffffffffffffffff1663a9059cbb33846040518363ffffffff1660e01b815260040161099c92919061148a565b6020604051808303816000875af11580156109bb573d6000803e3d6000fd5b505050506040513d601f19601f820116820180604052508101906109df919061145d565b50600260009054906101000a900473ffffffffffffffffffffffffffffffffffffffff1673ffffffffffffffffffffffffffffffffffffffff1663a9059cbb33836040518363ffffffff1660e01b8152600401610a3d92919061148a565b6020604051808303816000875af1158015610a5c573d6000803e3d6000fd5b505050506040513d601f19601f82011682018060405250810190610a80919061145d565b50610a89610e59565b915091565b6000610a98610e13565b600160009054906101000a900473ffffffffffffffffffffffffffffffffffffffff1673ffffffffffffffffffffffffffffffffffffffff166323b872dd3330866040518463ffffffff1660e01b8152600401610af793929190611411565b6020604051808303816000875af1158015610b16573d6000803e3d6000fd5b505050506040513d601f19601f82011682018060405250810190610b3a919061145d565b50600260009054906101000a900473ffffffffffffffffffffffffffffffffffffffff1673ffffffffffffffffffffffffffffffffffffffff166323b872dd3330856040518463ffffffff1660e01b8152600401610b9a93929190611411565b6020604051808303816000875af1158015610bb9573d6000803e3d6000fd5b505050506040513d601f19601f82011682018060405250810190610bdd919061145d565b506000600554905060008103610c4b57610c018385610bfc91906112c0565b610e63565b915060008211610c46576040517f08c379a0000000000000000000000000000000000000000000000000000000008152600401610c3d9061159f565b60405180910390fd5b610c99565b60006003548286610c5c91906112c0565b610c669190611365565b905060006004548386610c7991906112c0565b610c839190611365565b9050808210610c925780610c94565b815b935050505b60008211610cdc576040517f08c379a0000000000000000000000000000000000000000000000000000000008152600401610cd39061159f565b60405180910390fd5b8360036000828254610cee9190611302565b925050819055508260046000828254610d079190611302565b9250508190555081600660003373ffffffffffffffffffffffffffffffffffffffff1673ffffffffffffffffffffffffffffffffffffffff1681526020019081526020016000206000828254610d5d9190611302565b925050819055508160056000828254610d769190611302565b9250508190555050610d86610e59565b92915050565b60066020528060005260406000206000915090505481565b600260009054906101000a900473ffffffffffffffffffffffffffffffffffffffff1681565b6000600660008373ffffffffffffffffffffffffffffffffffffffff1673ffffffffffffffffffffffffffffffffffffffff168152602001908152602001600020549050919050565b600260005403610e4f576040517f3ee5aeb500000000000000000000000000000000000000000000000000000000815260040160405180910390fd5b6002600081905550565b6001600081905550565b60006003821115610eca5781905060006001600284610e829190611365565b610e8c9190611302565b90505b81811015610ec4578091506002818285610ea99190611365565b610eb39190611302565b610ebd9190611365565b9050610e8f565b50610ed8565b60008214610ed757600190505b5b919050565b6000819050919050565b610ef081610edd565b82525050565b6000604082019050610f0b6000830185610ee7565b610f186020830184610ee7565b9392505050565b600073ffffffffffffffffffffffffffffffffffffffff82169050919050565b6000819050919050565b6000610f64610f5f610f5a84610f1f565b610f3f565b610f1f565b9050919050565b6000610f7682610f49565b9050919050565b6000610f8882610f6b565b9050919050565b610f9881610f7d565b82525050565b6000602082019050610fb36000830184610f8f565b92915050565b6000602082019050610fce6000830184610ee7565b92915050565b600080fd5b610fe281610edd565b8114610fed57600080fd5b50565b600081359050610fff81610fd9565b92915050565b60008115159050919050565b61101a81611005565b811461102557600080fd5b50565b60008135905061103781611011565b92915050565b6000806040838503121561105457611053610fd4565b5b600061106285828601610ff0565b925050602061107385828601611028565b9150509250929050565b60008060006060848603121561109657611095610fd4565b5b60006110a486828701610ff0565b93505060206110b586828701610ff0565b92505060406110c686828701611028565b9150509250925092565b6000602082840312156110e6576110e5610fd4565b5b60006110f484828501610ff0565b91505092915050565b6000806040838503121561111457611113610fd4565b5b600061112285828601610ff0565b925050602061113385828601610ff0565b9150509250929050565b600061114882610f1f565b9050919050565b6111588161113d565b811461116357600080fd5b50565b6000813590506111758161114f565b92915050565b60006020828403121561119157611190610fd4565b5b600061119f84828501611166565b91505092915050565b600082825260208201905092915050565b7f496e76616c696420696e70757420616d6f756e74000000000000000000000000600082015250565b60006111ef6014836111a8565b91506111fa826111b9565b602082019050919050565b6000602082019050818103600083015261121e816111e2565b9050919050565b7f496e73756666696369656e74206c697175696469747900000000000000000000600082015250565b600061125b6016836111a8565b915061126682611225565b602082019050919050565b6000602082019050818103600083015261128a8161124e565b9050919050565b7f4e487b7100000000000000000000000000000000000000000000000000000000600052601160045260246000fd5b60006112cb82610edd565b91506112d683610edd565b92508282026112e481610edd565b915082820484148315176112fb576112fa611291565b5b5092915050565b600061130d82610edd565b915061131883610edd565b92508282019050808211156113305761132f611291565b5b92915050565b7f4e487b7100000000000000000000000000000000000000000000000000000000600052601260045260246000fd5b600061137082610edd565b915061137b83610edd565b92508261138b5761138a611336565b5b828204905092915050565b7f496e73756666696369656e74206f757470757420616d6f756e74000000000000600082015250565b60006113cc601a836111a8565b91506113d782611396565b602082019050919050565b600060208201905081810360008301526113fb816113bf565b9050919050565b61140b8161113d565b82525050565b60006060820190506114266000830186611402565b6114336020830185611402565b6114406040830184610ee7565b949350505050565b60008151905061145781611011565b92915050565b60006020828403121561147357611472610fd4565b5b600061148184828501611448565b91505092915050565b600060408201905061149f6000830185611402565b6114ac6020830184610ee7565b9392505050565b60006114be82610edd565b91506114c983610edd565b92508282039050818111156114e1576114e0611291565b5b92915050565b7f496e73756666696369656e74206c697175696469747920746f2072656d6f7665600082015250565b600061151d6020836111a8565b9150611528826114e7565b602082019050919050565b6000602082019050818103600083015261154c81611510565b9050919050565b7f496e73756666696369656e74206c6971756964697479206d696e746564000000600082015250565b6000611589601d836111a8565b915061159482611553565b602082019050919050565b600060208201905081810360008301526115b88161157c565b905091905056fea26469706673582212209b136d959408b62ca8b2739c9c7abfed203d48b84f8508e8922f80303ebff8ba64736f6c634300081c0033",
  "linkReferences": {},
  "deployedLinkReferences": {}
}