{
  "_format": "hh-sol-artifact-1",
  "contractName": "BasicDEX",
  "sourceName": "contracts/BasicDex.sol",
  "abi": [
    {
      "inputs": [
        {
          "internalType": "address",
          "name": "_token0",
          "type": "address"
        },
        {
          "internalType": "address",
          "name": "_token1",
          "type": "address"
        }
      ],
      "stateMutability": "nonpayable",
      "type": "constructor"
    },
    {
      "inputs": [],
      "name": "ReentrancyGuardReentrantCall",
      "type": "error"
    },
    {
      "inputs": [
        {
          "internalType": "uint256",
          "name": "amount0",
          "type": "uint256"
        },
        {
          "internalType": "uint256",
          "name": "amount1",
          "type": "uint256"
        }
      ],
      "name": "addLiquidity",
      "outputs": [
        {
          "internalType": "uint256",
          "name": "liquidityMinted",
          "type": "uint256"
        }
      ],
      "stateMutability": "nonpayable",
      "type": "function"
    },
    {
      "inputs": [
        {
          "internalType": "uint256",
          "name": "amountA",
          "type": "uint256"
        },
        {
          "internalType": "bool",
          "name": "isToken0",
          "type": "bool"
        }
      ],
      "name": "getLiquidityAmount",
      "outputs": [
        {
          "internalType": "uint256",
          "name": "requiredOtherToken",
          "type": "uint256"
        },
        {
          "internalType": "uint256",
          "name": "expectedLiquidity",
          "type": "uint256"
        }
      ],
      "stateMutability": "view",
      "type": "function"
    },
    {
      "inputs": [],
      "name": "getReserves",
      "outputs": [
        {
          "internalType": "uint256",
          "name": "_reserve0",
          "type": "uint256"
        },
        {
          "internalType": "uint256",
          "name": "_reserve1",
          "type": "uint256"
        }
      ],
      "stateMutability": "view",
      "type": "function"
    },
    {
      "inputs": [
        {
          "internalType": "uint256",
          "name": "amountIn",
          "type": "uint256"
        },
        {
          "internalType": "bool",
          "name": "token0ToToken1",
          "type": "bool"
        }
      ],
      "name": "getSwapAmount",
      "outputs": [
        {
          "internalType": "uint256",
          "name": "amountOut",
          "type": "uint256"
        }
      ],
      "stateMutability": "view",
      "type": "function"
    },
    {
      "inputs": [
        {
          "internalType": "address",
          "name": "user",
          "type": "address"
        }
      ],
      "name": "getUserLiquidity",
      "outputs": [
        {
          "internalType": "uint256",
          "name": "",
          "type": "uint256"
        }
      ],
      "stateMutability": "view",
      "type": "function"
    },
    {
      "inputs": [
        {
          "internalType": "address",
          "name": "",
          "type": "address"
        }
      ],
      "name": "liquidity",
      "outputs": [
        {
          "internalType": "uint256",
          "name": "",
          "type": "uint256"
        }
      ],
      "stateMutability": "view",
      "type": "function"
    },
    {
      "inputs": [
        {
          "internalType": "uint256",
          "name": "liquidityAmount",
          "type": "uint256"
        }
      ],
      "name": "removeLiquidity",
      "outputs": [
        {
          "internalType": "uint256",
          "name": "amount0",
          "type": "uint256"
        },
        {
          "internalType": "uint256",
          "name": "amount1",
          "type": "uint256"
        }
      ],
      "stateMutability": "nonpayable",
      "type": "function"
    },
    {
      "inputs": [],
      "name": "reserve0",
      "outputs": [
        {
          "internalType": "uint256",
          "name": "",
          "type": "uint256"
        }
      ],
      "stateMutability": "view",
      "type": "function"
    },
    {
      "inputs": [],
      "name": "reserve1",
      "outputs": [
        {
          "internalType": "uint256",
          "name": "",
          "type": "uint256"
        }
      ],
      "stateMutability": "view",
      "type": "function"
    },
    {
      "inputs": [
        {
          "internalType": "uint256",
          "name": "amountIn",
          "type": "uint256"
        },
        {
          "internalType": "uint256",
          "name": "minAmountOut",
          "type": "uint256"
        },
        {
          "internalType": "bool",
          "name": "token0ToToken1",
          "type": "bool"
        }
      ],
      "name": "swap",
      "outputs": [
        {
          "internalType": "uint256",
          "name": "amountOut",
          "type": "uint256"
        }
      ],
      "stateMutability": "nonpayable",
      "type": "function"
    },
    {
      "inputs": [],
      "name": "token0",
      "outputs": [
        {
          "internalType": "contract IERC20",
          "name": "",
          "type": "address"
        }
      ],
      "stateMutability": "view",
      "type": "function"
    },
    {
      "inputs": [],
      "name": "token1",
      "outputs": [
        {
          "internalType": "contract IERC20",
          "name": "",
          "type": "address"
        }
      ],
      "stateMutability": "view",
      "type": "function"
    },
    {
      "inputs": [],
      "name": "totalLiquidity",
      "outputs": [
        {
          "internalType": "uint256",
          "name": "",
          "type": "uint256"
        }
      ],
      "stateMutability": "view",
      "type": "function"
    }
  ],
  "bytecode": "0x608060405234801561001057600080fd5b5060405161193b38038061193b83398181016040528101906100329190610126565b600160008190555081600160006101000a81548173ffffffffffffffffffffffffffffffffffffffff021916908373ffffffffffffffffffffffffffffffffffffffff16021790555080600260006101000a81548173ffffffffffffffffffffffffffffffffffffffff021916908373ffffffffffffffffffffffffffffffffffffffff1602179055505050610166565b600080fd5b600073ffffffffffffffffffffffffffffffffffffffff82169050919050565b60006100f3826100c8565b9050919050565b610103816100e8565b811461010e57600080fd5b50565b600081519050610120816100fa565b92915050565b6000806040838503121561013d5761013c6100c3565b5b600061014b85828601610111565b925050602061015c85828601610111565b9150509250929050565b6117c6806101756000396000f3fe608060405234801561001057600080fd5b50600436106100cf5760003560e01c8063443cb4bc1161008c5780639cd441da116100665780639cd441da1461022d578063b8c876b11461025d578063d21220a71461028d578063dbbdd935146102ab576100cf565b8063443cb4bc146101c05780635a76f25e146101de5780639c8f9f23146101fc576100cf565b80630902f1ac146100d45780630dfe1681146100f357806310c2779f1461011157806315770f921461014257806328db42ad146101605780632bec60fe14610190575b600080fd5b6100dc6102db565b6040516100ea92919061105b565b60405180910390f35b6100fb6102ec565b6040516101089190611103565b60405180910390f35b61012b60048036038101906101269190611187565b610312565b60405161013992919061105b565b60405180910390f35b61014a61042b565b60405161015791906111c7565b60405180910390f35b61017a60048036038101906101759190611187565b610431565b60405161018791906111c7565b60405180910390f35b6101aa60048036038101906101a591906111e2565b61053e565b6040516101b791906111c7565b60405180910390f35b6101c86108e1565b6040516101d591906111c7565b60405180910390f35b6101e66108e7565b6040516101f391906111c7565b60405180910390f35b61021660048036038101906102119190611235565b6108ed565b60405161022492919061105b565b60405180910390f35b61024760048036038101906102429190611262565b610bf3565b60405161025491906111c7565b60405180910390f35b610277600480360381019061027291906112e0565b610ef1565b60405161028491906111c7565b60405180910390f35b610295610f09565b6040516102a29190611103565b60405180910390f35b6102c560048036038101906102c091906112e0565b610f2f565b6040516102d291906111c7565b60405180910390f35b600080600354600454915091509091565b600160009054906101000a900473ffffffffffffffffffffffffffffffffffffffff1681565b60008060008411610358576040517f08c379a000000000000000000000000000000000000000000000000000000000815260040161034f9061136a565b60405180910390fd5b60006005540361038057839150610379828561037491906113b9565b610f78565b90506103e1565b60008361038f57600454610393565b6003545b90506000846103a4576003546103a8565b6004545b90508181876103b791906113b9565b6103c1919061142a565b935081600554876103d291906113b9565b6103dc919061142a565b925050505b60008211610424576040517f08c379a000000000000000000000000000000000000000000000000000000000815260040161041b906114a7565b60405180910390fd5b9250929050565b60055481565b6000808311610475576040517f08c379a000000000000000000000000000000000000000000000000000000000815260040161046c9061136a565b60405180910390fd5b600060035411801561048957506000600454115b6104c8576040517f08c379a00000000000000000000000000000000000000000000000000000000081526004016104bf90611513565b60405180910390fd5b6000826104d7576004546104db565b6003545b90506000836104ec576003546104f0565b6004545b905060006103e58661050291906113b9565b9050806103e88461051391906113b9565b61051d9190611533565b828261052991906113b9565b610533919061142a565b935050505092915050565b6000610548610ff2565b6000841161058b576040517f08c379a00000000000000000000000000000000000000000000000000000000081526004016105829061136a565b60405180910390fd5b6105958483610431565b9050828110156105da576040517f08c379a00000000000000000000000000000000000000000000000000000000081526004016105d1906115b3565b60405180910390fd5b811561075b57600160009054906101000a900473ffffffffffffffffffffffffffffffffffffffff1673ffffffffffffffffffffffffffffffffffffffff166323b872dd3330876040518463ffffffff1660e01b815260040161063f939291906115e2565b6020604051808303816000875af115801561065e573d6000803e3d6000fd5b505050506040513d601f19601f82011682018060405250810190610682919061162e565b50600260009054906101000a900473ffffffffffffffffffffffffffffffffffffffff1673ffffffffffffffffffffffffffffffffffffffff1663a9059cbb33836040518363ffffffff1660e01b81526004016106e092919061165b565b6020604051808303816000875af11580156106ff573d6000803e3d6000fd5b505050506040513d601f19601f82011682018060405250810190610723919061162e565b5083600360008282546107369190611533565b92505081905550806004600082825461074f9190611684565b925050819055506108d2565b600260009054906101000a900473ffffffffffffffffffffffffffffffffffffffff1673ffffffffffffffffffffffffffffffffffffffff166323b872dd3330876040518463ffffffff1660e01b81526004016107ba939291906115e2565b6020604051808303816000875af11580156107d9573d6000803e3d6000fd5b505050506040513d601f19601f820116820180604052508101906107fd919061162e565b50600160009054906101000a900473ffffffffffffffffffffffffffffffffffffffff1673ffffffffffffffffffffffffffffffffffffffff1663a9059cbb33836040518363ffffffff1660e01b815260040161085b92919061165b565b6020604051808303816000875af115801561087a573d6000803e3d6000fd5b505050506040513d601f19601f8201168201806040525081019061089e919061162e565b5083600460008282546108b19190611533565b9250508190555080600360008282546108ca9190611684565b925050819055505b6108da611038565b9392505050565b60035481565b60045481565b6000806108f8610ff2565b82600660003373ffffffffffffffffffffffffffffffffffffffff1673ffffffffffffffffffffffffffffffffffffffff16815260200190815260200160002054101561097a576040517f08c379a000000000000000000000000000000000000000000000000000000000815260040161097190611513565b60405180910390fd5b6005546003548461098b91906113b9565b610995919061142a565b9150600554600454846109a891906113b9565b6109b2919061142a565b90506000821180156109c45750600081115b610a03576040517f08c379a00000000000000000000000000000000000000000000000000000000081526004016109fa90611704565b60405180910390fd5b82600660003373ffffffffffffffffffffffffffffffffffffffff1673ffffffffffffffffffffffffffffffffffffffff1681526020019081526020016000206000828254610a529190611684565b925050819055508260056000828254610a6b9190611684565b925050819055508160036000828254610a849190611684565b925050819055508060046000828254610a9d9190611684565b92505081905550600160009054906101000a900473ffffffffffffffffffffffffffffffffffffffff1673ffffffffffffffffffffffffffffffffffffffff1663a9059cbb33846040518363ffffffff1660e01b8152600401610b0192919061165b565b6020604051808303816000875af1158015610b20573d6000803e3d6000fd5b505050506040513d601f19601f82011682018060405250810190610b44919061162e565b50600260009054906101000a900473ffffffffffffffffffffffffffffffffffffffff1673ffffffffffffffffffffffffffffffffffffffff1663a9059cbb33836040518363ffffffff1660e01b8152600401610ba292919061165b565b6020604051808303816000875af1158015610bc1573d6000803e3d6000fd5b505050506040513d601f19601f82011682018060405250810190610be5919061162e565b50610bee611038565b915091565b6000610bfd610ff2565b600160009054906101000a900473ffffffffffffffffffffffffffffffffffffffff1673ffffffffffffffffffffffffffffffffffffffff166323b872dd3330866040518463ffffffff1660e01b8152600401610c5c939291906115e2565b6020604051808303816000875af1158015610c7b573d6000803e3d6000fd5b505050506040513d601f19601f82011682018060405250810190610c9f919061162e565b50600260009054906101000a900473ffffffffffffffffffffffffffffffffffffffff1673ffffffffffffffffffffffffffffffffffffffff166323b872dd3330856040518463ffffffff1660e01b8152600401610cff939291906115e2565b6020604051808303816000875af1158015610d1e573d6000803e3d6000fd5b505050506040513d601f19601f82011682018060405250810190610d42919061162e565b506000600554905060008103610db057610d668385610d6191906113b9565b610f78565b915060008211610dab576040517f08c379a0000000000000000000000000000000000000000000000000000000008152600401610da290611770565b60405180910390fd5b610dfe565b60006003548286610dc191906113b9565b610dcb919061142a565b905060006004548386610dde91906113b9565b610de8919061142a565b9050808210610df75780610df9565b815b935050505b60008211610e41576040517f08c379a0000000000000000000000000000000000000000000000000000000008152600401610e3890611770565b60405180910390fd5b8360036000828254610e539190611533565b925050819055508260046000828254610e6c9190611533565b9250508190555081600660003373ffffffffffffffffffffffffffffffffffffffff1673ffffffffffffffffffffffffffffffffffffffff1681526020019081526020016000206000828254610ec29190611533565b925050819055508160056000828254610edb9190611533565b9250508190555050610eeb611038565b92915050565b60066020528060005260406000206000915090505481565b600260009054906101000a900473ffffffffffffffffffffffffffffffffffffffff1681565b6000600660008373ffffffffffffffffffffffffffffffffffffffff1673ffffffffffffffffffffffffffffffffffffffff168152602001908152602001600020549050919050565b60006003821115610fdf5781905060006001600284610f97919061142a565b610fa19190611533565b90505b81811015610fd9578091506002818285610fbe919061142a565b610fc89190611533565b610fd2919061142a565b9050610fa4565b50610fed565b60008214610fec57600190505b5b919050565b60026000540361102e576040517f3ee5aeb500000000000000000000000000000000000000000000000000000000815260040160405180910390fd5b6002600081905550565b6001600081905550565b6000819050919050565b61105581611042565b82525050565b6000604082019050611070600083018561104c565b61107d602083018461104c565b9392505050565b600073ffffffffffffffffffffffffffffffffffffffff82169050919050565b6000819050919050565b60006110c96110c46110bf84611084565b6110a4565b611084565b9050919050565b60006110db826110ae565b9050919050565b60006110ed826110d0565b9050919050565b6110fd816110e2565b82525050565b600060208201905061111860008301846110f4565b92915050565b600080fd5b61112c81611042565b811461113757600080fd5b50565b60008135905061114981611123565b92915050565b60008115159050919050565b6111648161114f565b811461116f57600080fd5b50565b6000813590506111818161115b565b92915050565b6000806040838503121561119e5761119d61111e565b5b60006111ac8582860161113a565b92505060206111bd85828601611172565b9150509250929050565b60006020820190506111dc600083018461104c565b92915050565b6000806000606084860312156111fb576111fa61111e565b5b60006112098682870161113a565b935050602061121a8682870161113a565b925050604061122b86828701611172565b9150509250925092565b60006020828403121561124b5761124a61111e565b5b60006112598482850161113a565b91505092915050565b600080604083850312156112795761127861111e565b5b60006112878582860161113a565b92505060206112988582860161113a565b9150509250929050565b60006112ad82611084565b9050919050565b6112bd816112a2565b81146112c857600080fd5b50565b6000813590506112da816112b4565b92915050565b6000602082840312156112f6576112f561111e565b5b6000611304848285016112cb565b91505092915050565b600082825260208201905092915050565b7f496e76616c696420696e70757420616d6f756e74000000000000000000000000600082015250565b600061135460148361130d565b915061135f8261131e565b602082019050919050565b6000602082019050818103600083015261138381611347565b9050919050565b7f4e487b7100000000000000000000000000000000000000000000000000000000600052601160045260246000fd5b60006113c482611042565b91506113cf83611042565b92508282026113dd81611042565b915082820484148315176113f4576113f361138a565b5b5092915050565b7f4e487b7100000000000000000000000000000000000000000000000000000000600052601260045260246000fd5b600061143582611042565b915061144083611042565b9250826114505761144f6113fb565b5b828204905092915050565b7f496e76616c696420726571756972656420616d6f756e74000000000000000000600082015250565b600061149160178361130d565b915061149c8261145b565b602082019050919050565b600060208201905081810360008301526114c081611484565b9050919050565b7f496e73756666696369656e74206c697175696469747900000000000000000000600082015250565b60006114fd60168361130d565b9150611508826114c7565b602082019050919050565b6000602082019050818103600083015261152c816114f0565b9050919050565b600061153e82611042565b915061154983611042565b92508282019050808211156115615761156061138a565b5b92915050565b7f496e73756666696369656e74206f757470757420616d6f756e74000000000000600082015250565b600061159d601a8361130d565b91506115a882611567565b602082019050919050565b600060208201905081810360008301526115cc81611590565b9050919050565b6115dc816112a2565b82525050565b60006060820190506115f760008301866115d3565b61160460208301856115d3565b611611604083018461104c565b949350505050565b6000815190506116288161115b565b92915050565b6000602082840312156116445761164361111e565b5b600061165284828501611619565b91505092915050565b600060408201905061167060008301856115d3565b61167d602083018461104c565b9392505050565b600061168f82611042565b915061169a83611042565b92508282039050818111156116b2576116b161138a565b5b92915050565b7f496e73756666696369656e74206c697175696469747920746f2072656d6f7665600082015250565b60006116ee60208361130d565b91506116f9826116b8565b602082019050919050565b6000602082019050818103600083015261171d816116e1565b9050919050565b7f496e73756666696369656e74206c6971756964697479206d696e746564000000600082015250565b600061175a601d8361130d565b915061176582611724565b602082019050919050565b600060208201905081810360008301526117898161174d565b905091905056fea2646970667358221220382a17667189e34b31cf576f0a38e7490b7ae60323a534e66dc98aeae228a0b864736f6c634300081c0033",
  "linkReferences": {},
  "deployedLinkReferences": {}
}