{
  "_format": "hh-sol-artifact-1",
  "contractName": "BasicDEX",
  "sourceName": "contracts/BasicDex.sol",
  "abi": [
    {
      "inputs": [
        {
          "internalType": "address",
          "name": "_token0",
          "type": "address"
        },
        {
          "internalType": "address",
          "name": "_token1",
          "type": "address"
        }
      ],
      "stateMutability": "nonpayable",
      "type": "constructor"
    },
    {
      "inputs": [],
      "name": "ReentrancyGuardReentrantCall",
      "type": "error"
    },
    {
      "inputs": [
        {
          "internalType": "uint256",
          "name": "amount0",
          "type": "uint256"
        },
        {
          "internalType": "uint256",
          "name": "amount1",
          "type": "uint256"
        }
      ],
      "name": "addLiquidity",
      "outputs": [
        {
          "internalType": "uint256",
          "name": "liquidityMinted",
          "type": "uint256"
        }
      ],
      "stateMutability": "nonpayable",
      "type": "function"
    },
    {
      "inputs": [],
      "name": "getReserves",
      "outputs": [
        {
          "internalType": "uint256",
          "name": "_reserve0",
          "type": "uint256"
        },
        {
          "internalType": "uint256",
          "name": "_reserve1",
          "type": "uint256"
        }
      ],
      "stateMutability": "view",
      "type": "function"
    },
    {
      "inputs": [
        {
          "internalType": "address",
          "name": "user",
          "type": "address"
        }
      ],
      "name": "getUserLiquidity",
      "outputs": [
        {
          "internalType": "uint256",
          "name": "",
          "type": "uint256"
        }
      ],
      "stateMutability": "view",
      "type": "function"
    },
    {
      "inputs": [
        {
          "internalType": "address",
          "name": "",
          "type": "address"
        }
      ],
      "name": "liquidity",
      "outputs": [
        {
          "internalType": "uint256",
          "name": "",
          "type": "uint256"
        }
      ],
      "stateMutability": "view",
      "type": "function"
    },
    {
      "inputs": [
        {
          "internalType": "uint256",
          "name": "liquidityAmount",
          "type": "uint256"
        }
      ],
      "name": "removeLiquidity",
      "outputs": [
        {
          "internalType": "uint256",
          "name": "amount0",
          "type": "uint256"
        },
        {
          "internalType": "uint256",
          "name": "amount1",
          "type": "uint256"
        }
      ],
      "stateMutability": "nonpayable",
      "type": "function"
    },
    {
      "inputs": [],
      "name": "reserve0",
      "outputs": [
        {
          "internalType": "uint256",
          "name": "",
          "type": "uint256"
        }
      ],
      "stateMutability": "view",
      "type": "function"
    },
    {
      "inputs": [],
      "name": "reserve1",
      "outputs": [
        {
          "internalType": "uint256",
          "name": "",
          "type": "uint256"
        }
      ],
      "stateMutability": "view",
      "type": "function"
    },
    {
      "inputs": [
        {
          "internalType": "uint256",
          "name": "amountIn",
          "type": "uint256"
        },
        {
          "internalType": "uint256",
          "name": "minAmountOut",
          "type": "uint256"
        },
        {
          "internalType": "bool",
          "name": "token0ToToken1",
          "type": "bool"
        }
      ],
      "name": "swap",
      "outputs": [
        {
          "internalType": "uint256",
          "name": "amountOut",
          "type": "uint256"
        }
      ],
      "stateMutability": "nonpayable",
      "type": "function"
    },
    {
      "inputs": [],
      "name": "token0",
      "outputs": [
        {
          "internalType": "contract IERC20",
          "name": "",
          "type": "address"
        }
      ],
      "stateMutability": "view",
      "type": "function"
    },
    {
      "inputs": [],
      "name": "token1",
      "outputs": [
        {
          "internalType": "contract IERC20",
          "name": "",
          "type": "address"
        }
      ],
      "stateMutability": "view",
      "type": "function"
    },
    {
      "inputs": [],
      "name": "totalLiquidity",
      "outputs": [
        {
          "internalType": "uint256",
          "name": "",
          "type": "uint256"
        }
      ],
      "stateMutability": "view",
      "type": "function"
    }
  ],
  "bytecode": "0x608060405234801561001057600080fd5b5060405161164638038061164683398181016040528101906100329190610126565b600160008190555081600160006101000a81548173ffffffffffffffffffffffffffffffffffffffff021916908373ffffffffffffffffffffffffffffffffffffffff16021790555080600260006101000a81548173ffffffffffffffffffffffffffffffffffffffff021916908373ffffffffffffffffffffffffffffffffffffffff1602179055505050610166565b600080fd5b600073ffffffffffffffffffffffffffffffffffffffff82169050919050565b60006100f3826100c8565b9050919050565b610103816100e8565b811461010e57600080fd5b50565b600081519050610120816100fa565b92915050565b6000806040838503121561013d5761013c6100c3565b5b600061014b85828601610111565b925050602061015c85828601610111565b9150509250929050565b6114d1806101756000396000f3fe608060405234801561001057600080fd5b50600436106100a95760003560e01c80635a76f25e116100715780635a76f25e146101575780639c8f9f23146101755780639cd441da146101a6578063b8c876b1146101d6578063d21220a714610206578063dbbdd93514610224576100a9565b80630902f1ac146100ae5780630dfe1681146100cd57806315770f92146100eb5780632bec60fe14610109578063443cb4bc14610139575b600080fd5b6100b6610254565b6040516100c4929190610e12565b60405180910390f35b6100d5610265565b6040516100e29190610eba565b60405180910390f35b6100f361028b565b6040516101009190610ed5565b60405180910390f35b610123600480360381019061011e9190610f59565b610291565b6040516101309190610ed5565b60405180910390f35b610141610698565b60405161014e9190610ed5565b60405180910390f35b61015f61069e565b60405161016c9190610ed5565b60405180910390f35b61018f600480360381019061018a9190610fac565b6106a4565b60405161019d929190610e12565b60405180910390f35b6101c060048036038101906101bb9190610fd9565b6109aa565b6040516101cd9190610ed5565b60405180910390f35b6101f060048036038101906101eb9190611057565b610ca8565b6040516101fd9190610ed5565b60405180910390f35b61020e610cc0565b60405161021b9190610eba565b60405180910390f35b61023e60048036038101906102399190611057565b610ce6565b60405161024b9190610ed5565b60405180910390f35b600080600354600454915091509091565b600160009054906101000a900473ffffffffffffffffffffffffffffffffffffffff1681565b60055481565b600061029b610d2f565b600084116102de576040517f08c379a00000000000000000000000000000000000000000000000000000000081526004016102d5906110e1565b60405180910390fd5b6000826102ed576004546102f1565b6003545b905060008361030257600354610306565b6004545b905060006103e5876103189190611130565b9050806103e8846103299190611130565b6103339190611172565b828261033f9190611130565b61034991906111d5565b93508584101561038e576040517f08c379a000000000000000000000000000000000000000000000000000000000815260040161038590611252565b60405180910390fd5b841561050f57600160009054906101000a900473ffffffffffffffffffffffffffffffffffffffff1673ffffffffffffffffffffffffffffffffffffffff166323b872dd33308a6040518463ffffffff1660e01b81526004016103f393929190611281565b6020604051808303816000875af1158015610412573d6000803e3d6000fd5b505050506040513d601f19601f8201168201806040525081019061043691906112cd565b50600260009054906101000a900473ffffffffffffffffffffffffffffffffffffffff1673ffffffffffffffffffffffffffffffffffffffff1663a9059cbb33866040518363ffffffff1660e01b81526004016104949291906112fa565b6020604051808303816000875af11580156104b3573d6000803e3d6000fd5b505050506040513d601f19601f820116820180604052508101906104d791906112cd565b5086600360008282546104ea9190611172565b9250508190555083600460008282546105039190611323565b92505081905550610686565b600260009054906101000a900473ffffffffffffffffffffffffffffffffffffffff1673ffffffffffffffffffffffffffffffffffffffff166323b872dd33308a6040518463ffffffff1660e01b815260040161056e93929190611281565b6020604051808303816000875af115801561058d573d6000803e3d6000fd5b505050506040513d601f19601f820116820180604052508101906105b191906112cd565b50600160009054906101000a900473ffffffffffffffffffffffffffffffffffffffff1673ffffffffffffffffffffffffffffffffffffffff1663a9059cbb33866040518363ffffffff1660e01b815260040161060f9291906112fa565b6020604051808303816000875af115801561062e573d6000803e3d6000fd5b505050506040513d601f19601f8201168201806040525081019061065291906112cd565b5086600460008282546106659190611172565b92505081905550836003600082825461067e9190611323565b925050819055505b505050610691610d75565b9392505050565b60035481565b60045481565b6000806106af610d2f565b82600660003373ffffffffffffffffffffffffffffffffffffffff1673ffffffffffffffffffffffffffffffffffffffff168152602001908152602001600020541015610731576040517f08c379a0000000000000000000000000000000000000000000000000000000008152600401610728906113a3565b60405180910390fd5b600554600354846107429190611130565b61074c91906111d5565b91506005546004548461075f9190611130565b61076991906111d5565b905060008211801561077b5750600081115b6107ba576040517f08c379a00000000000000000000000000000000000000000000000000000000081526004016107b19061140f565b60405180910390fd5b82600660003373ffffffffffffffffffffffffffffffffffffffff1673ffffffffffffffffffffffffffffffffffffffff16815260200190815260200160002060008282546108099190611323565b9250508190555082600560008282546108229190611323565b92505081905550816003600082825461083b9190611323565b9250508190555080600460008282546108549190611323565b92505081905550600160009054906101000a900473ffffffffffffffffffffffffffffffffffffffff1673ffffffffffffffffffffffffffffffffffffffff1663a9059cbb33846040518363ffffffff1660e01b81526004016108b89291906112fa565b6020604051808303816000875af11580156108d7573d6000803e3d6000fd5b505050506040513d601f19601f820116820180604052508101906108fb91906112cd565b50600260009054906101000a900473ffffffffffffffffffffffffffffffffffffffff1673ffffffffffffffffffffffffffffffffffffffff1663a9059cbb33836040518363ffffffff1660e01b81526004016109599291906112fa565b6020604051808303816000875af1158015610978573d6000803e3d6000fd5b505050506040513d601f19601f8201168201806040525081019061099c91906112cd565b506109a5610d75565b915091565b60006109b4610d2f565b600160009054906101000a900473ffffffffffffffffffffffffffffffffffffffff1673ffffffffffffffffffffffffffffffffffffffff166323b872dd3330866040518463ffffffff1660e01b8152600401610a1393929190611281565b6020604051808303816000875af1158015610a32573d6000803e3d6000fd5b505050506040513d601f19601f82011682018060405250810190610a5691906112cd565b50600260009054906101000a900473ffffffffffffffffffffffffffffffffffffffff1673ffffffffffffffffffffffffffffffffffffffff166323b872dd3330856040518463ffffffff1660e01b8152600401610ab693929190611281565b6020604051808303816000875af1158015610ad5573d6000803e3d6000fd5b505050506040513d601f19601f82011682018060405250810190610af991906112cd565b506000600554905060008103610b6757610b1d8385610b189190611130565b610d7f565b915060008211610b62576040517f08c379a0000000000000000000000000000000000000000000000000000000008152600401610b599061147b565b60405180910390fd5b610bb5565b60006003548286610b789190611130565b610b8291906111d5565b905060006004548386610b959190611130565b610b9f91906111d5565b9050808210610bae5780610bb0565b815b935050505b60008211610bf8576040517f08c379a0000000000000000000000000000000000000000000000000000000008152600401610bef9061147b565b60405180910390fd5b8360036000828254610c0a9190611172565b925050819055508260046000828254610c239190611172565b9250508190555081600660003373ffffffffffffffffffffffffffffffffffffffff1673ffffffffffffffffffffffffffffffffffffffff1681526020019081526020016000206000828254610c799190611172565b925050819055508160056000828254610c929190611172565b9250508190555050610ca2610d75565b92915050565b60066020528060005260406000206000915090505481565b600260009054906101000a900473ffffffffffffffffffffffffffffffffffffffff1681565b6000600660008373ffffffffffffffffffffffffffffffffffffffff1673ffffffffffffffffffffffffffffffffffffffff168152602001908152602001600020549050919050565b600260005403610d6b576040517f3ee5aeb500000000000000000000000000000000000000000000000000000000815260040160405180910390fd5b6002600081905550565b6001600081905550565b60006003821115610de65781905060006001600284610d9e91906111d5565b610da89190611172565b90505b81811015610de0578091506002818285610dc591906111d5565b610dcf9190611172565b610dd991906111d5565b9050610dab565b50610df4565b60008214610df357600190505b5b919050565b6000819050919050565b610e0c81610df9565b82525050565b6000604082019050610e276000830185610e03565b610e346020830184610e03565b9392505050565b600073ffffffffffffffffffffffffffffffffffffffff82169050919050565b6000819050919050565b6000610e80610e7b610e7684610e3b565b610e5b565b610e3b565b9050919050565b6000610e9282610e65565b9050919050565b6000610ea482610e87565b9050919050565b610eb481610e99565b82525050565b6000602082019050610ecf6000830184610eab565b92915050565b6000602082019050610eea6000830184610e03565b92915050565b600080fd5b610efe81610df9565b8114610f0957600080fd5b50565b600081359050610f1b81610ef5565b92915050565b60008115159050919050565b610f3681610f21565b8114610f4157600080fd5b50565b600081359050610f5381610f2d565b92915050565b600080600060608486031215610f7257610f71610ef0565b5b6000610f8086828701610f0c565b9350506020610f9186828701610f0c565b9250506040610fa286828701610f44565b9150509250925092565b600060208284031215610fc257610fc1610ef0565b5b6000610fd084828501610f0c565b91505092915050565b60008060408385031215610ff057610fef610ef0565b5b6000610ffe85828601610f0c565b925050602061100f85828601610f0c565b9150509250929050565b600061102482610e3b565b9050919050565b61103481611019565b811461103f57600080fd5b50565b6000813590506110518161102b565b92915050565b60006020828403121561106d5761106c610ef0565b5b600061107b84828501611042565b91505092915050565b600082825260208201905092915050565b7f496e76616c696420696e70757420616d6f756e74000000000000000000000000600082015250565b60006110cb601483611084565b91506110d682611095565b602082019050919050565b600060208201905081810360008301526110fa816110be565b9050919050565b7f4e487b7100000000000000000000000000000000000000000000000000000000600052601160045260246000fd5b600061113b82610df9565b915061114683610df9565b925082820261115481610df9565b9150828204841483151761116b5761116a611101565b5b5092915050565b600061117d82610df9565b915061118883610df9565b92508282019050808211156111a05761119f611101565b5b92915050565b7f4e487b7100000000000000000000000000000000000000000000000000000000600052601260045260246000fd5b60006111e082610df9565b91506111eb83610df9565b9250826111fb576111fa6111a6565b5b828204905092915050565b7f496e73756666696369656e74206f757470757420616d6f756e74000000000000600082015250565b600061123c601a83611084565b915061124782611206565b602082019050919050565b6000602082019050818103600083015261126b8161122f565b9050919050565b61127b81611019565b82525050565b60006060820190506112966000830186611272565b6112a36020830185611272565b6112b06040830184610e03565b949350505050565b6000815190506112c781610f2d565b92915050565b6000602082840312156112e3576112e2610ef0565b5b60006112f1848285016112b8565b91505092915050565b600060408201905061130f6000830185611272565b61131c6020830184610e03565b9392505050565b600061132e82610df9565b915061133983610df9565b925082820390508181111561135157611350611101565b5b92915050565b7f496e73756666696369656e74206c697175696469747900000000000000000000600082015250565b600061138d601683611084565b915061139882611357565b602082019050919050565b600060208201905081810360008301526113bc81611380565b9050919050565b7f496e73756666696369656e74206c697175696469747920746f2072656d6f7665600082015250565b60006113f9602083611084565b9150611404826113c3565b602082019050919050565b60006020820190508181036000830152611428816113ec565b9050919050565b7f496e73756666696369656e74206c6971756964697479206d696e746564000000600082015250565b6000611465601d83611084565b91506114708261142f565b602082019050919050565b6000602082019050818103600083015261149481611458565b905091905056fea2646970667358221220ef80cb29c3570bdb9461256253d12f7df1fd905e0ca6b75068d59753df32aa6064736f6c634300081c0033",
  "linkReferences": {},
  "deployedLinkReferences": {}
}